:100000000C9434000C9451000C9451000C94510049
:100010000C9451000C9451000C9451000C9451001C
:100020000C9451000C9451000C9451000C9451000C
:100030000C9451000C9451000C943C010C94510010
:100040000C9451000C9451000C9438030C94510002
:100050000C9451000C9451000C9451000C945100DC
:100060000C9451000C94510011241FBECFEFD8E026
:10007000DEBFCDBF11E0A0E0B1E0EAEBF7E002C0E7
:1000800005900D92A232B107D9F721E0A2E2B1E0CA
:1000900001C01D92A934B207E1F70E94EC010C9453
:1000A000DB030C9400009BB140E1849F900111247C
:1000B0009F70292B2BB995B1907F82958F70892BDA
:1000C00085B90895CF93C82F8BB18B7F8BB98C2FB7
:1000D0000E9453008BB188608BB985E08A95F1F757
:1000E00000008BB1877F8BB987EC90E00197F1F727
:1000F00000C00000C150C23038F48FE39FE1019787
:10010000F1F700C0000006C087EC90E00197F1F71E
:1001100000C00000CF9108959BB194609BB90E94EC
:1001200053008BB188608BB985E08A95F1F70000A8
:100130008BB1877F8BB987EC90E00197F1F700C016
:10014000000087EC90E00197F1F700C000000895EF
:10015000CF93DF93EC0103C021960E948C0088812D
:100160008111FACFDF91CF910895613011F490E0C1
:1001700001C090E4811101C081E0890F8150806845
:100180000E94620008958AB184608AB98AB1886049
:100190008AB98AB1806F8AB984B18F6084B98BB112
:1001A0008B7F8BB98BB1877F8BB92FEF80E792E084
:1001B000215080409040E1F700C000008BB18B7F60
:1001C0008BB980E30E9453008BB188608BB925E026
:1001D0002A95F1F700008BB1877F8BB987EC90E00F
:1001E0000197F1F700C000008FE39CE90197F1F758
:1001F00000C0000080E30E9453008BB188608BB97F
:1002000095E09A95F1F700008BB1877F8BB987EC69
:1002100090E00197F1F700C000008FE193E00197B3
:10022000F1F700C0000080E30E9453008BB18860AA
:100230008BB995E09A95F1F700008BB1877F8BB968
:1002400087EC90E00197F1F700C000008FE193E0A8
:100250000197F1F700C0000088E30E94620088E087
:100260000E94620081E00E94620086E00E946200BB
:100270008CE00E94620008951F920F920FB60F92B9
:1002800011248F939F93AF93BF93809122019091FC
:100290002301A0912401B09125010196A11DB11D5A
:1002A0008093220190932301A0932401B093250110
:1002B000BF91AF919F918F910F900FBE0F901F90A4
:1002C00018950F931F93CF93DF93AC01FB0180E24E
:1002D0008083818382838383148283E090E0EC01B6
:1002E00021978F01080F191F9A01ADECBCEC0E94F9
:1002F000B8039695879596958795969587959C01D1
:10030000220F331F880F991F880F991F880F991F7D
:10031000820F931F9A01281B390BC901805DD801F8
:100320008C939A01ADECBCEC0E94B803AC015695DD
:10033000479556954795569547954115510519F09E
:10034000CE01DD2364F6DF91CF911F910F910895C7
:10035000CF93DF939C01FB01203187E2380714F033
:100360002FE037E2213F88ED380714F421EF38ED14
:10037000332314F48DE201C08BE2808333231CF419
:10038000319521953109C90168EE73E00E9482031D
:10039000CB01CAE0D0E0BE010E948203805D818370
:1003A000C90164E670E00E948203CB01BE010E9495
:1003B0008203805D8283C901BE010E948203282FCF
:1003C000CB01BE010E948203805D8383205D248374
:1003D0001582DF91CF910895CF93DF93CDB7DEB72C
:1003E00061970FB6F894DEBF0FBECDBF0E94C30069
:1003F0000E947E020E940703789461E081E00E94DF
:10040000B50080E091E00E94A80061E08AE00E94CF
:10041000B50085E091E00E94A80062E081E00E94C2
:10042000B50089E091E00E94A80000E010E00E9481
:100430003003882321F0080F111D87FD1A9580E0F5
:100440000E9485026C0181E00E9485027C01B60158
:10045000CE0107960E949A02BE01635F7F4FC701DB
:100460000E946101BE016F5F7F4FC8010E94A80119
:1004700061E084E00E94B500CE0107960E94A800CA
:1004800061E08DE00E94B5008DE091E00E94A8003F
:1004900061E08DE00E94B500CE010D960E94A8009B
:1004A00062E084E00E94B500CE0101960E94A8009F
:1004B00081E191E00E942303CE0107960E9423036D
:1004C00085E191E00E942303CE010D960E94230353
:1004D0008AE191E00E942303CE0101960E9423034A
:1004E0008FE191E00E9423032FEF83EC99E02150EC
:1004F00080409040E1F700C0000099CF80E48093F5
:100500007C0087E880937A000895ECE7F0E0908122
:10051000907F8F70892B8083EAE7F0E08081806490
:10052000808380917A0086FDFCCF80917800909145
:10053000790008958F929F92AF92BF92CF92DF92EF
:10054000EF92FF921F93CF93DF93EC019B01A8E8FA
:10055000B3E10E94B8036B017C012FEFC20E21E0D2
:10056000D21EE11CF11CC701B6012FEF33E040E0C1
:1005700050E00E94960349015A01C701B60128E1E3
:100580003CE94FE050E00E949603122FC501B401F0
:1005900028EE33E040E050E00E9496032AE030E08D
:1005A00040E050E00E94960369017A01105D1883D3
:1005B0008EE28983ADECBCEC0E94B803AC01569589
:1005C0004795569547955695479580E3840F8A83BE
:1005D000CA01880F991F440F551F440F551F440F20
:1005E000551F480F591FC601841B950B805D8B83D7
:1005F00086E58C831D82DF91CF911F91FF90EF9054
:10060000DF90CF90BF90AF909F908F9008958AB168
:1006100082608AB98AB18E7F8AB91092C00088E957
:100620008093C10086E08093C20087E690E09093BB
:10063000C5008093C40008959091C00095FFFCCF41
:100640008093C6000895CF93DF93EC0103C02196F9
:100650000E941C0388818111FACFDF91CF91089508
:100660009FB7F89480912601109226019FBF0895AC
:100670001F920F920FB60F9211248F939F93EF93B7
:10068000FF938091C6008D30A1F18B3251F480919F
:1006900026018F3771F1809126018F5F80932601AB
:1006A00028C08D3251F480912601803811F180915B
:1006B00026018150809326011CC08A3021F0909140
:1006C00027019F3160F0E0912701F0E0E75DFE4FE8
:1006D00010821092270181E0809328010AC0E091E6
:1006E000270191E09E0F90932701F0E0E75DFE4F18
:1006F0008083FF91EF919F918F910F900FBE0F908C
:100700001F90189597FB072E16F4009407D077FDDD
:1007100009D00E94C70307FC05D03EF4909581954F
:100720009F4F0895709561957F4F0895A1E21A2E0D
:10073000AA1BBB1BFD010DC0AA1FBB1FEE1FFF1F85
:10074000A217B307E407F50720F0A21BB30BE40BD5
:10075000F50B661F771F881F991F1A9469F760951C
:100760007095809590959B01AC01BD01CF010895D6
:10077000A29FB001B39FC001A39F700D811D1124E2
:10078000911DB29F700D811D1124911D0895AA1B0A
:10079000BB1B51E107C0AA1FBB1FA617B70710F06C
:1007A000A61BB70B881F991F5A95A9F7809590959E
:0A07B000BC01CD010895F894FFCFBD
:1007BA0053313A200053323A0053333A0020202072
:1007CA000053313D002053323D002053333D000D8C
:0207DA000A0013
:00000001FF
