S01400004C61626F7261746F72696F312E7372656361
S11300000C9434000C9451000C9451000C942A026A
S11300100C9451000C9451000C9451000C94510018
S11300200C9451000C9451000C9451000C94E70171
S11300300C9451000C9451000C9421010C94510027
S11300400C9451000C9451000C9451000C945100E8
S11300500C9451000C9451000C9451000C945100D8
S11300600C9451000C94510011241FBECFEFD8E022
S1130070DEBFCDBF11E0A0E0B1E0E0E9F5E002C0F1
S113008005900D92A230B107D9F721E0A2E0B1E0CA
S113009001C01D92AA30B207E1F70E947C010C94C2
S11300A0C6020C940000823009F459C038F4882345
S11300B009F487C0813009F46BC008958430E9F0F5
S11300C0A8F1853009F095C08BB180648BB98BB1F0
S11300D080628BB98BB180618BB98BB182608BB933
S11300E08BB184608BB98BB18E7F8BB98BB1877FD9
S11300F08BB98BB18F778BB908958BB18F7B8BB90B
S11301008BB180628BB98BB180618BB98BB182600A
S11301108BB98BB18B7F8BB98BB18E7F8BB98BB144
S1130120877F8BB98BB180688BB908958BB180645C
S11301308BB98BB18F7D8BB98BB180618BB98BB14E
S113014082608BB98BB184608BB98BB181608BB9C0
S11301508BB1877F8BB98BB180688BB908958BB1D4
S113016080648BB98BB18F7D8BB98BB180618BB976
S11301708BB18D7F8BB98BB184608BB98BB181606E
S11301808BB98BB188608BB98BB180688BB90895BA
S11301908BB18F7B8BB98BB18F7D8BB98BB18F7EFC
S11301A08BB98BB182608BB98BB18B7F8BB98BB1DF
S11301B08E7F8BB98BB1877F8BB98BB180688BB9FC
S11301C008958BB180648BB98BB180628BB98BB18C
S11301D08F7E8BB98BB182608BB98BB184608BB904
S11301E08BB181608BB98BB188608BB98BB180681E
S11301F08BB9089510928000E1E8F0E010828081CC
S11302008860808388E09DE39093890080938800D0
S1130210EFE6F0E08081826080830895109285008B
S11302201092840086B3826086BBE1E8F0E08081AE
S1130230856080830895E1E8F0E08081887F808391
S113024008951F920F920FB60F9211248F939F93CC
S1130250AF93BF938091020190910301A091040197
S1130260B09105010196A11DB11D809302019093E7
S11302700301A0930401B0930501BF91AF919F9135
S11302808F910F900FBE0F901F90189582E084BD40
S113029015BC89EF87BD16BC85B3826085BBEEE6CD
S11302A0F0E080818260808385B5836085BD089598
S11302B084B1887F84B985B1876085B9E8E6F0E0C8
S11302C0808181608083EBE6F0E0808187608083B9
S11302D00895F8948FE387B984B1806384B98FEF6C
S11302E08AB90E9446010E94FA000E94580183B113
S11302F080930001789408950E946901FFCF98B11A
S1130300937C98B9823069F018F4813031F0089503
S1130310833059F0843069F0089588B1806288B9D7
S1130320089588B1806188B9089588B1886088B9D2
S1130330089588B1846088B9089598B19C7F98B96C
S113034095B19F7C95B9823069F018F4813031F011
S11303500895833059F0843069F0089588B182603B
S113036088B9089588B1816088B9089585B180629B
S113037085B9089585B1806185B90895CF93C82F53
S113038083E0809309010E941B01E8E6F0E080818C
S11303908E7F80838BB381608BBB8C2F0E94530034
S11303A0C13051F488B1836088B985B1806385B95F
S11303B088B1837C88B909C088B18C6388B988B155
S11303C08C7F88B985B18F7C85B9CF9108951F92B0
S11303D00F920FB60F9211242F933F934F935F9375
S11303E06F937F938F939F93AF93BF93EF93FF93F9
S11303F080910901813019F00E941B011AC080917B
S11304000601811111C082E0809309010E941B0141
S113041083B1809300018BB381608BBBE8E6F0E08D
S113042080818160808305C08150809306010E9491
S11304305300FF91EF91BF91AF919F918F917F9165
S11304406F915F914F913F912F910F900FBE0F903D
S11304501F9018951F920F920FB60F921124CF92EE
S1130460DF92EF92FF922F933F934F935F936F939B
S11304707F938F939F93AF93BF93CF93EF93FF9308
S113048083B1909100019827209100019223282F95
S11304902095C92FC22380930001C0900201D090FF
S11304A00301E0900401F09005018091090183307B
S11304B009F456C081111CC0C2FF52C08CE3C81697
S11304C0D104E104F10408F44BC081E080930901F4
S11304D0E8E6F0E080818E7F80838BB381608BBB04
S11304E085E0809306010E9453000E940E0138C0EB
S11304F08130B1F18230A1F5C0FF18C08CE3C81679
S1130500D104E104F10490F080910701853018F4DE
S11305108F5F80930701809107010E947F01809182
S11305200701853018F082E00E94BE01C1FF18C0A7
S11305308CE3C816D104E104F10490F08091080121
S1130540853018F48F5F80930801809108010E9420
S11305509D0180910801853018F081E00E94BE0160
S1130560FF91EF91CF91BF91AF919F918F917F9127
S11305706F915F914F913F912F91FF90EF90DF909A
S1130580CF900F900FBE0F901F901895F894FFCF47
S1050590FF0066
S9030000FC
